:1000000010C01FC01EC01DC01CC01BC01AC01AC01B
:1000100018C017C016C015C014C013C012C011C03C
:1000200010C011241FBECFE5D2E0DEBFCDBF20E05F
:10003000A0E6B0E001C01D92A636B207E1F7E1D01C
:100040002DC1DECF1F920F920FB60F9211242F9366
:100050008F939F9380916200909163008C389A47B0
:1000600054F4809162009091630001969093630034
:100070008093620029C080916400909165008C3863
:10008000910554F4809164009091650001969093DD
:1000900065008093640018C01092630010926200A3
:1000A000109265001092640085B3805885BB8091E2
:1000B00060009091610080916000909161000196D4
:1000C00090936100809360009F918F912F910F908A
:1000D0000FBE0F901F901895FC018FEF8ABB8FE029
:1000E00087BB8FE384BBC798C698C598C49881E442
:1000F00080838BED818383E282838BE0838389E934
:1001000084838DE0858385E086838BE5878381E02A
:10011000808789E0818789B7826089BF83B78160E2
:1001200083BF83B78D7F83BF83B78B7F83BF80E01F
:1001300090E00895FC0118BA8DEE92E00197F1F776
:1001400000C0000082858BBBC79A8DEE92E00197BC
:10015000F1F700C0000018BA8BE49DE10197F1F7B8
:1001600000C0000083858BBBC69A8DEE92E001979C
:10017000F1F700C0000018BA8DEE92E00197F1F798
:1001800000C0000084858BBBC59A8DEE92E001977C
:10019000F1F700C0000018BA8DEE92E00197F1F778
:1001A00000C0000085858BBBC49A8DEE92E001975C
:1001B000F1F700C0000080E090E00895FC0180911C
:1001C00060009091610080319E406CF480916000ED
:1001D000909161006CE370E03AD06130710571F488
:1001E000818182870BC08091600090916100803195
:1001F0009E4024F0809160009091610080E090E04A
:100200000895CF93DF93CDB7DEB72E970FB6F8944E
:10021000DEBF0FBECDBF89818B878C878D878E8790
:1002200010926300109262001092650010926400B8
:100230001092610010926000CE0101964DDF78941B
:10024000CE01019677DFCE010196B8DFF9CF97FB9B
:10025000072E16F4009406D077FD08D00BD007FCCB
:1002600005D03EF4909581959F4F089570956195C6
:100270007F4F0895AA1BBB1B51E107C0AA1FBB1FDC
:10028000A617B70710F0A61BB70B881F991F5A9522
:10029000A9F780959095BC01CD010895F894FFCF02
:00000001FF
