:100000001AC029C028C027C026C025C024C024C0CB
:1000100022C021C020C01FC01EC01DC01CC01BC0EC
:100020001AC007C108C109C10AC10BC10CC10DC169
:100030000EC10FC110C111241FBECFE5D2E0DEBF3B
:10004000CDBF20E0A0E6B0E001C01D92A636B20709
:10005000E1F709D185C1D4CF1F920F920FB60F924D
:1000600011248F939F938091620090916300843656
:10007000910554F4809162009091630001969093F1
:1000800063008093620029C08091640090916500B4
:100090008C38910554F4809164009091650001962C
:1000A000909365008093640018C0109263001092D2
:1000B0006200109265001092640085B3805885BB81
:1000C000809160009091610080916000909161004A
:1000D000019690936100809360009F918F910F90A3
:1000E0000FBE0F901F901895FC018FEF8ABB8FE019
:1000F00087BB8FE384BBC798C698C598C49881E432
:1001000080838BED818383E282838BE0838389E923
:1001100084838DE0858385E086838BE5878381E01A
:10012000808789E0818789B7826089BF83B78160D2
:1001300083BF83B78D7F83BF83B78B7F83BF80E00F
:1001400090E00895FC0118BA8DEE92E00197F1F766
:1001500000C0000082858BBBC79A8DEE92E00197AC
:10016000F1F700C0000018BA8BE49DE10197F1F7A8
:1001700000C0000083858BBBC69A8DEE92E001978C
:10018000F1F700C0000018BA8DEE92E00197F1F788
:1001900000C0000084858BBBC59A8DEE92E001976C
:1001A000F1F700C0000018BA8DEE92E00197F1F768
:1001B00000C0000085858BBBC49A8DEE92E001974C
:1001C000F1F700C0000080E090E00895FC0180910C
:1001D00060009091610060E17EE09BD0362F628BE1
:1001E00080916000909161006CE370E092D0262FC6
:1001F000638B5AE0832F652F80D0818B46EF849FDD
:10020000300D1124308B822F78D08787849F200D6A
:100210001124268780E090E00895CF93DF93DB01DF
:10022000EA01FC01FF27EA30F105C0F4EF5EFF4F61
:100230000994888111C089810FC08A810DC08B818A
:100240000BC08C8109C08D8107C08E8105C08F8154
:1002500003C0888501C089858C9302C08FEF9FEF12
:10026000DF91CF910895CF93DF93CDB7DEB7659738
:100270000FB6F894DEBF0FBECDBF89818B878C8708
:100280008D878E8710926300109262001092650035
:10029000109264001092610010926000CE010196ED
:1002A00023DF7894CE0101964DDFCE0101968EDFDB
:1002B0008F85AE014F5F5F4FBE01655F7F4F90E05E
:1002C000ACDF8889AE014F5F5F4FBE01645F7F4F37
:1002D00090E0A3DF8989AE014F5F5F4FBE01635F8E
:1002E0007F4F90E09ADF8A89AE014F5F5F4FBE017A
:1002F000625F7F4F90E091DFD5CF991B79E004C01A
:10030000991F961708F0961B881F7A95C9F7809554
:10031000089597FB072E16F4009406D077FD08D0B9
:100320000BD007FC05D03EF4909581959F4F089522
:10033000709561957F4F0895AA1BBB1B51E107C0C3
:10034000AA1FBB1FA617B70710F0A61BB70B881F65
:10035000991F5A95A9F780959095BC01CD010895F4
:04036000F894FFCF3F
:00000001FF
