:1000000010C017C016C015C014C013C012C011C054
:1000100010C00FC00EC00DC00CC00BC00AC009C07C
:1000200008C011241FBECFE5D2E0DEBFCDBF1ED079
:100030009AC0E6CFFC018FEF8ABB8FE087BB81E4DB
:1000400080838BED818383E282838BE0838389E9E4
:1000500084838DE0858385E086838BE5878381E0DB
:10006000808789E0818780E090E00895CF93DF93D7
:10007000CDB7DEB72A970FB6F894DEBF0FBECDBF5F
:10008000CE010196D7DFC49A89818BBB2FEF81EE19
:1000900094E0215080409040E1F700C000008A8148
:1000A0008BBB2FEF81EE94E0215080409040E1F730
:1000B00000C000008B818BBB2FEF81EE94E02150BC
:1000C00080409040E1F700C000008C818BBB2FEF97
:1000D00081EE94E0215080409040E1F700C00000A4
:1000E0008D818BBB2FEF81EE94E0215080409040BA
:1000F000E1F700C000008E818BBB2FEF81EE94E012
:10010000215080409040E1F700C000008F818BBB00
:100110002FEF81EE94E0215080409040E1F700C045
:10012000000088858BBB2FEF81EE94E0215080404A
:100130009040E1F700C0000089858BBB2FEF81EE76
:1001400094E0215080409040E1F700C000008A8593
:100150008BBB2FEF81EE94E0215080409040E1F77F
:0A01600000C0000091CFF894FFCF1B
:00000001FF
