:100000001AC029C028C027C026C025C024C024C0CB
:1000100022C021C020C01FC01EC01DC01CC01BC0EC
:100020001AC076C177C178C179C17AC17BC17CC160
:100030007DC17EC17FC111241FBECFE5D2E0DEBFEE
:10004000CDBF20E0A0E6B0E001C01D92A836B20707
:10005000E1F778D1E7C1D4CF1F920F920FB60F927C
:1000600011242F938F939F93AF93BF93809164003C
:100070009091650081319A4754F480916400909189
:1000800065000196909365008093640044C0809160
:1000900066009091670097FF0AC08091660090917A
:1000A00067000196909367008093660034C01092B9
:1000B000650010926400109267001092660085B38C
:1000C000805885BB8091600090916100A091620092
:1000D000B091630080389145A140B105A0F48091B2
:1000E000600090916100A0916200B0916300019660
:1000F000A11DB11D8093600090936100A0936200E8
:10010000B093630008C010926000109261001092DA
:10011000620010926300BF91AF919F918F912F91D8
:100120000F900FBE0F901F901895FC018FEF8ABBA8
:100130008FE087BB8FE384BBC798C698C598C498E7
:1001400081E480838BED818383E282838BE08383F0
:1001500089E984838DE0858385E086838BE58783C9
:1001600081E0808789E0818789B7826089BF83B712
:10017000816083BF83B78D7F83BF83B78B7F83BF4E
:1001800080E090E00895FC0118BA8DEE92E00197AE
:10019000F1F700C0000082858BBBC79A8DEE92E01C
:1001A0000197F1F700C0000018BA8BE49DE10197B8
:1001B000F1F700C0000083858BBBC69A8DEE92E0FC
:1001C0000197F1F700C0000018BA8DEE92E0019798
:1001D000F1F700C0000084858BBBC59A8DEE92E0DC
:1001E0000197F1F700C0000018BA8DEE92E0019778
:1001F000F1F700C0000085858BBBC49A8DEE92E0BC
:100200000197F1F700C0000080E090E008958F9220
:100210009F92AF92BF92CF92DF92EF92FF921F9385
:10022000CF93DF93EC016091600070916100809149
:1002300062009091630020EA3CE840E050E0D0D0BA
:1002400049015A013D8B2C8B6091600070916100D7
:10025000809162009091630020E1C22E2EE0D22EA8
:10026000E12CF12CA7019601BBD016EFB4011603C7
:10027000C001179F900D1124280F391F3B8B2A8B2B
:1002800060916000709161008091620090916300C4
:10029000A7019601A5D028E532E040E050E0A0D0CB
:1002A00049015A01398B288B60916000709161007F
:1002B0008091620090916300A701960191D02CE398
:1002C00030E040E050E08CD0B4011603C001179F2D
:1002D000900D1124280F391F3F872E8780E090E072
:1002E000DF91CF911F91FF90EF90DF90CF90BF9063
:1002F000AF909F908F900895CF93DF93DB01EA0139
:10030000FC01FF27EA30F105C0F4EF5EFF4F0994CE
:10031000888111C089810FC08A810DC08B810BC07B
:100320008C8109C08D8107C08E8105C08F8103C07B
:10033000888501C089858C9302C08FEF9FEFDF9184
:10034000CF910895CF93DF93CDB7DEB767970FB600
:10035000F894DEBF0FBECDBF89818B878C878D87D8
:100360008E871092650010926400109267001092C0
:10037000660010926000109261001092620010926C
:100380006300CE010196D1DE7894CE010196FBDEAA
:10039000CE0101963CDFAE014F5F5F4FBE01655F4E
:1003A0007F4F8F859889A8DFAE014F5F5F4FBE01F9
:1003B000645F7F4F89899A899FDFAE014F5F5F4FEE
:1003C000BE01635F7F4F8B899C8996DFAE014F5FD3
:1003D0005F4FBE01625F7F4F8D899E898DDFD5CFD4
:1003E000A1E21A2EAA1BBB1BFD010DC0AA1FBB1F39
:1003F000EE1FFF1FA217B307E407F50720F0A21BAB
:10040000B30BE40BF50B661F771F881F991F1A9417
:1004100069F760957095809590959B01AC01BD0141
:08042000CF010895F894FFCF0D
:00000001FF
