:1000000010C017C016C015C014C013C012C011C054
:1000100010C00FC00EC00DC00CC00BC00AC009C07C
:1000200008C011241FBECFE5D2E0DEBFCDBF36D061
:100030004CC0E6CFFC018FEF8ABB8FE087BB8FE31C
:1000400084BBC798C698C598C49881E480838BED1B
:10005000818383E282838BE0838389E984838DE0DB
:10006000858385E086838BE5878381E0808789E0CF
:10007000818780E090E0089518BA8BBBC79A18BAC0
:100080006BBBC69A18BA4BBBC59A18BA2BBBC49A9D
:1000900080E090E0089580E090E00895CF93DF93B2
:1000A000CDB7DEB72A970FB6F894DEBF0FBECDBF2F
:1000B0001D810C81FB80EA80CE010196BBDF2E2DD5
:0E00C0004F2D602F812FD8DFFACFF894FFCF9D
:00000001FF
