:1000000010C01FC01EC01DC01CC01BC01AC01AC01B
:1000100018C017C016C015C014C013C012C011C03C
:1000200010C011241FBECFE5D2E0DEBFCDBF20E05F
:10003000A0E6B0E001C01D92A636B207E1F7D5D028
:1000400008C1DECF1F920F920FB60F9211242F938B
:100050008F939F93809160009091610080916000E8
:10006000909161000196909361008093600080916F
:100070006200909163008C389A4754F4809162003A
:1000800090916300019690936300809362001CC07E
:1000900080916400909165008C38910554F48091B2
:1000A00064009091650001969093650080936400D0
:1000B0000BC085B3805885BB10926300109262001C
:1000C00010926500109264009F918F912F910F9074
:1000D0000FBE0F901F901895FC018FEF8ABB8FE029
:1000E00087BB8FE384BBC798C698C598C49881E442
:1000F00080838BED818383E282838BE0838389E934
:1001000084838DE0858385E086838BE5878381E02A
:10011000808789E0818789B7826089BF83B78160E2
:1001200083BF83B78D7F83BF83B78B7F83BF80E01F
:1001300090E0089518BAEDEEF2E03197F1F700C0C3
:1001400000008BBBC79A8DEE92E00197F1F700C0DB
:10015000000018BAEBE4FDE13197F1F700C00000B0
:100160006BBBC69A8DEE92E00197F1F700C00000DC
:1001700018BAEDEEF2E03197F1F700C000004BBB8A
:10018000C59A8DEE92E00197F1F700C0000018BA11
:10019000EDEEF2E03197F1F700C000002BBBC49AFE
:1001A0008DEE92E00197F1F700C0000080E090E052
:1001B0000895809160009091610080319E403CF4F0
:1001C00080916000909161008FEF9FEF0895809182
:1001D00060009091610080319E4024F08091600029
:1001E0009091610080E090E00895CF93DF93CDB7C8
:1001F000DEB72E970FB6F894DEBF0FBECDBF898154
:100200008E878D878C878B87109263001092620097
:1002100010926500109264001092610010926000CC
:10022000CE01019659DF78942B854C856D858E859E
:1002300081DF8E010F5F1F4F9E01255F3F4FAE0193
:10024000445F5F4FBE01635F7F4FCE010E96B1DF0B
:06025000EBCFF894FFCF94
:00000001FF
